:020000022000DC
:10700000C07C0020096203004D6D0400F56103009F
:10701000F5610300F5610300F56103000000000065
:107020000000000000000000000000008163030079
:10703000F5610300000000001D630300F56103001B
:1070400049650300DFA704004965030049650300A3
:10705000496503004965030049650300496503006C
:10706000F5A704004965030049650300C9A70400AA
:10707000496503004965030049650300496503004C
:10708000496503004965030049650300496503003C
:10709000496503004965030049650300496503002C
:1070A000496503004965030049650300496503001C
:1070B000496503004965030049650300496503000C
:1070C00049650300496503004965030049650300FC
:1070D00049650300496503004965030049650300EC
:1070E00049650300496503004965030049650300DC
:1070F00049650300496503004965030049650300CC
:10710000064B074A5B7802604FF422728280C3719B
:107110000822002382710372704700BF600C0020B8
:1071200067370300064B074A5B7A02604FF49C7294
:107130008280C3710822FF2382710372704700BFEF
:10714000600C00207B320300F8B5C41D002824F039
:107150000704054614BF2046002000F07FFA071EF2
:1071600002DA6FF00B00F8BD254EB1887088F37914
:10717000B2790331033089B280B20AF02DF80028C9
:10718000EFDB737831783C4403341944002D24F04C
:10719000030400FB01F114BF2046002000F0E4FBD3
:1071A00023180DB9002BDCDB717A184679B1033353
:1071B000002D23F0030414BF20460020728900F044
:1071C00045FC0028CDDB20440DB90028C9DB317A0D
:1071D00091B1737A83B1C41D002D24F0070414BF4C
:1071E0002046002003F050F80028BADB0DB1002043
:1071F000B9E72018B7D5B4E7002DF8D1B3E700BF41
:10720000600C00201FB572B6194BDD68EDB9BFF3F5
:107210004F8F1849184BCA6802F4E0621343CB60E1
:10722000BFF34F8F00BFFDE72346B2FBF6F25C1CB5
:10723000002AF9D104AEDCB256FA83F303F80C2C21
:107240000A2234B901A8A847E1E7024600230A262A
:10725000EDE7631E04AEDCB256FA83F3B0FBF2F640
:1072600002FB1600303003F80C0C3046E9E700BF93
:10727000600C002000ED00E00400FA0507B50A4BA1
:10728000DA88ADF8002068469A885B88ADF804205B
:10729000ADF8023001F04AFD18B1FC219C20FFF747
:1072A000B1FF03B05DF804FB600C002010B504468C
:1072B00028B309F097F810B94FF0FF3010BD06F071
:1072C000B5FFB0F5FA7FF7D80E4B00221A744FF4D1
:1072D00080721A801B225A809A8040F20322DA8040
:1072E0004FF484721A811F22DC605A81EFF31084FC
:1072F00072B600F009FC04B962B60020DEE76FF058
:107300001500DBE7600C002010B5002840D1234CAD
:10731000237C032B39D059B1002A3CD002390529EE
:1073200036D8DFE801F0031227352A2D1378637071
:107330000020FFF709FF0028B7BF012302232374B1
:107340006FF00B00A8BF237410BD13791BB35379E2
:107350000BB31188FB291ED853881B3B9BB2E02B33
:1073600019D81A2917D91368C4F802300C4B92881F
:107370009A80DDE713786372DAE713886381D7E7D1
:107380001388FF2B07D82372D2E74FF0FF30DBE7DB
:107390006FF02C00D8E76FF01500D5E7600C0020E7
:1073A000620C0020F8B50D46064620B319B311F063
:1073B000070420D1114F3B7C012B02D16FF00B0051
:1073C000F8BD032B02D14FF0FF30F9E700F060F871
:1073D0000028F8D02846FFF7B7FE0028EEDB0CF0B7
:1073E0001FFA3046214601F023FDFFF747FF032334
:1073F0003B742046E4E76FF01500E1E7600C0020E5
:1074000010B5064C237C032B03D101F027FD02F0BD
:10741000A3F909F0EBFF0020207410BD600C0020E0
:1074200050B1074B03F1140253F8041B40F8041B3E
:107430009342F9D1002070476FF01500704700BFEC
:107440008AF4040008B501F0BFFCBDE80840024919
:10745000012000F0FBB800BF2571020008B501F063
:10746000C7FCBDE808400249002000F0EFB800BFAB
:1074700001710200024B02681A600020704700BFD1
:10748000740C0020014B1B68184700BF740C0020CF
:10749000024B1868003818BF01207047740C002098
:1074A000074B4FF0FF3141F6FF72C3E90012054967
:1074B0000022C1E900221F21C3E90212704700BF68
:1074C00000000020780C00203F280CD801380B4B1E
:1074D000C0F3421200F01F0053F8223023FA00F0EC
:1074E00000F001007047FF2806D04038C0F3421278
:1074F000034B00F01F00EFE7012070470000002061
:10750000780C00200146074B006849681A4603C200
:1075100040F48C221A6041F0107242F4FF625A600B
:1075200000207047000000200246034B00685168AD
:1075300003C30020704700BF780C00200246034BB5
:107540000068516803C30020704700BF0800002096
:10755000382800F1FF33DBB21FBF064A590902EB9E
:10756000810203F01F031DBF9068D84000F00100A6
:107570000020704700000020F0B50C88C37C028812
:10758000A5B2C4F30E0404F118060233865B1A4454
:10759000334497B213FA82F3013B4288B3FBF7F30B
:1075A00013FB07439BB29A42044A93BF22EA0503A6
:1075B0002A4013439BB20B80F0BD00BF0080FFFF49
:1075C0004A1E062A08B50346084604D84FF4D1716E
:1075D0001520FFF717FE094A914202D940F2A31184
:1075E000F6E711B903B1196008BD2BB11B68002281
:1075F000C3E901211A1D1A600430F5E7FAFFFF7F85
:1076000010B5114B00EB41041A786389B3FBF2F318
:1076100003FB0223013A1A44B2F5706F02798078B5
:1076200028BF00231A440B18B2FBF0F100FB112114
:107630005B1AB3FBF0F100FB113313446FEA4343D1
:107640006FEA5343638110BD800C0020024B03EBB3
:1076500080035960704700BF800C00202DE9F04F77
:1076600010F0070A85B0054604D040F26F111720CC
:10767000FFF7C8FD534F07F10C06B1460446B0466C
:1076800057F8043B8DF80BA03BB101A898479DF833
:107690000A30082B01D9F521E9E79DF80B1041BB11
:1076A00005B131604F4506F10406E9D1002D70D0D7
:1076B000DFF81491002289F800209646022758F836
:1076C00027A0013FBAF1000F56D09AF804609AF84B
:1076D00002C0FF2E61D039460023481C39D19C449A
:1076E000BCF1FF0F40D90AB189F800E04FF49A715C
:1076F000BDE79DF80AC06046022838BF02204B1D36
:107700005A0004EB4303441E2344BDF8084064447C
:10771000013CCCF1000C04EA0C044042B4F5803F7B
:1077200003EA000302D340F20511A0E775B19A1AEB
:107730000120326091701480D0709DF80C0010719F
:10774000019810814FEA104CA2F806C004FB0134E6
:10775000A8E758F8210028B190F804B0B34504BF59
:1077600080781B180139B8E7DBB2E6458AF80430A7
:107770003CBF5FFA8CFE01227B1CA0D10AB189F8C4
:1077800000E0022640F6FF6A58F82670B7B9013EBD
:10779000FAD2601B05B0BDE8F08F0023E5E707EBE8
:1077A00041033846A3F80AA0FFF72AFF09F10109AF
:1077B000BB785FFA89F18B42F1D8E8E74FF0000916
:1077C000F6E700BF840C0020800C002038B54FF68F
:1077D000FF730380184B03EB810302461869A8B1BD
:1077E00084780379B3FBF4F104FB1133DBB219465F
:1077F00000EB4105B5F90A50002D0EDB0131B1FB5C
:10780000F4F504FB1511C9B28B42F1D1002038BD4B
:107810006381BDE8384009F0BBBC00EB41046389DB
:10782000C3F30E031380C278002AF1D14FF4E5713F
:107830001720FFF7E7FC00BF800C00201C4B03EB78
:10784000810370B51C69054644B3030404D54FF4A5
:10785000EC711720FFF7D6FC0146204609F07AFCB0
:10786000FF28014604D02046BDE8704009F090BCD6
:10787000A078B5FBF0F300FB1353DBB219460A1DE9
:1078800004EB4206B6F90260002E09DB0131B1FBC0
:10789000F0F200FB1211C9B28B42F0D1002070BD92
:1078A0008B4201D00023E37004EB42025580DAE7FB
:1078B000800C0020094B03EB810310B51C690146C5
:1078C000204609F047FCFF28014604D02046BDE8C9
:1078D000104009F05DBC002010BD00BF800C0020EE
:1078E000F8B5104B03EB810307461C69014620469F
:1078F00009F030FCFF28054611D0E288238953EABD
:10790000024606D00146204609F042FC01463846B0
:10791000B04720462946FFF773FE0020F8BD05203A
:10792000FCE700BF800C002038B50E4B827903EBDA
:1079300082030446186908B9052038BD8278E179C8
:107940009142F9D24B1CE37100EB41035D89B3F91D
:107950000A30002BF3DBA58009F01AFC2060002020
:10796000EBE700BF800C002070B5044610F0030068
:107970000E4603D04E211820FFF744FCFFF720FEEF
:10798000054624B1034831460460FFF719FE284636
:1079900070BD00BF9C0C00202DE9F14FDFF870B0E6
:1079A0009DF828A09DF82C901E46DBF80030074675
:1079B0000D4690461BB960211820FFF723FC524664
:1079C0000921404609F04BFA4A4684B20921304663
:1079D00009F045FA14FA80F1DBF8000009F08EFB9B
:1079E000386018B9286001B0BDE8F08F04442C60FD
:1079F000386853464146092209F0F4F928684B4695
:107A00000922314601B0BDE8F04F09F0EBB900BFE3
:107A10009C0C002070B50E46044609F033FA05466A
:107A2000304609F02FFA044B2A1821461868BDE8A1
:107A3000704009F088BB00BF9C0C0020024B186806
:107A400008B109F04FBB70479C0C00201F2AF8B505
:107A5000044626D804200323134D12FB003254B1F0
:107A6000A30703D068210920FFF7CCFB22F0030312
:107A700029706C602B8122F003022823120403FB7F
:107A800001F001276B68120C0025EEB2B14200D85C
:107A9000F8BD14B126181F705E60104401352833FC
:107AA000F3E74FF0FF30F3E7A00C002070B5154A64
:107AB000157853680021C8B2854203D8BA2109203D
:107AC000FFF7A0FB1C46184614F8286B01310EB9CD
:107AD0002346F0E700219970128999610124D96148
:107AE00059685C70920803F11E0403F1260524F81E
:107AF000022FAC4243F8041F1144F8D10023436124
:107B0000037070BDA00C0020134B012200214FF028
:107B1000FF309A60C3F80012C3F80803C3F80015D9
:107B2000C3F804259A60C3F80803C3F80015C3F826
:107B300004250A490A4A03F580334FF40040C3F88C
:107B40000825C1F88000BFF34F8FBFF36F8FC1F8D6
:107B50008001C3F80825704700F0004000E100E014
:107B60000000F63F0A46192302F8033B0448C368A5
:107B7000C1F803300369536043699360704700BFE5
:107B8000AC0C0020024B5A8C02435A845B6A1847A3
:107B9000AC0C0020014B00215B6A1847AC0C0020A4
:107BA00010B5154C05F064FA05F0FCFD208DFFF7CB
:107BB000F1FF237E63B12246104952F80C3BE3608B
:107BC0006368536004F11900A36893600AF0B6FC7F
:107BD0000B4B228D93E8030002F08AFB236B18887D
:107BE00002F008FBA36B94F8341094F83500984722
:107BF000002384F83C3010BDAC0C0020657B0200F3
:107C0000D80C0020034B93F83C300BB1FFF7C8BFF2
:107C1000704700BFAC0C002070B51B4C256B236D6A
:107C200023644FF481730646A4F8443094F854005A
:107C300095F88B3095F8691000EB83002EB9FF287A
:107C400003D195F868308B4201D005F0B1F895F872
:107C50008B309BB1A06D05F0A9FAA16D206C05F0E9
:107C60007DFD16B9304605F0F5FA95F8681000204C
:107C700005F044FB022384F83C3070BD206C05F015
:107C800095FA05F08FFDECE7AC0C0020F0B590F80C
:107C90006940134A0B46012CD1E91C6792F8542025
:107CA00087B001F1780103F188034FF0010006D09D
:107CB000022C13D040F22C410620FFF7A3FA002437
:107CC0000025CDE9013205900090CDE9034532460B
:107CD0003B46012005F0A0FC07B0F0BD0446EFE7ED
:107CE000AC0C002008B5094B93F83C20022A04D0C4
:107CF00040F2E6212720FFF785FADA7A42F0010206
:107D0000DA72BDE80840FFF74BBF00BFAC0C0020A3
:107D1000F7B5184CE56D06460DB1A36C23B940F2DA
:107D2000E7712720FFF76EFAB4F84C306B702B78B0
:107D30002F4601F0030123F003030B4307F8033B35
:107D4000B4F84C20A16C384608F0E0FD0DF10202B9
:107D500001A9206E2564A76409F0BAF9019809F019
:107D6000A5F9B4F84C1030600122206E09F04DF9ED
:107D700003B0F0BDAC0C00202DE9F0412A4C94F882
:107D80003C30012B06460F465FFA83F804D040F6DC
:107D90002F012720FFF736FA256B95F87C303BB191
:107DA000002185F87C100420FFF7ECFE85F87D802B
:107DB00095F88030042B0AD11C490220FFF7E2FE1F
:107DC000E36E1B78991E4B424B4184F8743095F852
:107DD0008B3023B1206B05F17801FFF757FF1EB1FF
:107DE000BDE8F041FFF7DCBE002FF9D0A36F3046AD
:107DF00098470028F4D094F83430002BF0D1638CED
:107E00009A0708D594F87430002BE9D0BDE8F0410A
:107E10000020FFF701BF002BE2D194F87C30002B4B
:107E2000F4D194F87D30EFE7AC0C0020180D002061
:107E30002DE9F04F894C8FB00023CDE90B3394F836
:107E40003C30256B0791022B074604D04FF40C61A0
:107E50002720FFF7D7F9236C5A781E78A4F84C2016
:107E600003221344A36406F0030895F88B30A4F8AA
:107E70004420002800F0E180C6F3C009C3B105F03A
:107E8000A9FC831EDBB2012B04D8FFF789FE0FB0DB
:107E9000BDE8F08F60B9B4F84C304BB195F8823042
:107EA00003F001034B4503D1012384F83530ECE79F
:107EB000B4F84C1019B1206E09F087F8014695F816
:107EC0008120238DE1650132D2B282EA960A43F421
:107ED00000731AF0010A238523D0069795F88220B3
:107EE00002F0010399455CD04FF0000995F88A3003
:107EF000002B00F0C68095F868C0BCF1010FD5E9F1
:107F0000382305F1F00105F5807E4FF0010000F007
:107F1000AB80BCF1020F00F0FB8040F22C41062048
:107F200097E795F8803053B3013BDBB2042B85F81B
:107F300081200ED84A4AD35C002BCED0022B0BD125
:107F4000D4F884000BA908F0E9FF88B940F2F76182
:107F50007EE740F2D6617BE7032B10D101F036F8C3
:107F600010B940F2017173E751460820FFF70AFE8D
:107F7000D5E93832013342F10002C5E9383295F8CB
:107F80007D30002185F8801023B185F87D10102008
:107F9000FFF7F8FD238D43F4006323850023069348
:107FA0009CE7B4F84C30E3B108F1FF31012918D84F
:107FB000218D41F48051218594F88810994206D290
:107FC00094F8343043F0100384F834308CE7E16DDA
:107FD000002989D094F8891019B12020FFF7DAFD23
:107FE00082E70132B8F1030F85F882201AD008F138
:107FF000FF32012A0BD8002B3FF476AFD5E93A3295
:10800000013342F10002C5E93A32B9466EE7002B6E
:108010003FF46AAFD5E93A32013342F10002C5E9D3
:108020003A3261E7238D0F49012043F4805385F8EC
:108030007C002385FFF7A6FDECE70BB105F006FCFD
:1080400094F88A30013384F88A30238D4FF0000988
:1080500043F480632385CDF8189047E7AC0C0020EB
:1080600074C40400F40C00204FF0000C05900020B4
:10807000CDE903C04FF0FB0CCDE901EC009005F019
:10808000CBFAE36D002B45D1B4F84C30B3FA83F34F
:108090005B0903EA161384F87D30079B002B3BD164
:1080A000628C94F88A30110702D594F874209ABB38
:1080B000012B31D8A36F0120984768B394F834603E
:1080C00056BBD4F830A094F854309AF88B209AF824
:1080D000681003EB8203FF2B03D19AF869308B42BF
:1080E00002D0FF2004F064FED4F830B000228DF8F6
:1080F0002920ADF82A209BF88020052A00F2338140
:10810000DFE812F061000F011201120124012401C5
:108110008446ABE70123BCE705F0FAF8B9F1000F9C
:108120004CD1012307939B4C238D5A0606D4402043
:10813000FFF730FD238D43F040032385069B6BB191
:10814000B4F80720B4F805301343B5F87E20134384
:108150001EBFB4F809300133A4F80930002F00F035
:108160001281B4F805300133A4F80530002384F8F7
:108170008A30894802F02CF80B9830B108F096FF4D
:1081800000220272294601F0EFFB0C9B33B1002262
:108190001A720C220C98294601F0B4FB079B002BA5
:1081A0007FF473AE238D1B063FF571AE8020FFF781
:1081B000F1FC238D43F08003238568E641460CA83B
:1081C000FFF7A6FDADE794F88B20ABF858200DF132
:1081D0002A010DA8ADF82A2000F0EAFE38B10D986A
:1081E00028B104228BF88020BDF82A2016E09BF8E5
:1081F000C320002A40F08F80D4F884000DF12902BA
:108200000DF12A0108F065FE002800F08480BDF819
:108210002A20002A70D101218BF880106066A4F812
:108220007020002A00F0A28003309BF88130089370
:108230009BF882309BF880B0E066BBF1020F099397
:1082400009D0ABF10402012A00F292800378022BDC
:108250004FF0030B0ED0D4F8840008F095FE0028F0
:1082600040F08980BBF1030F04D000F0BBFE80F02A
:108270000106F6B2616E089A0B78D000099A00F0F8
:10828000080003F0F3030343900000F004000343ED
:1082900023F0100343EA061323F003034BEA03021F
:1082A0000A70B4F870304B700222A4F868209AF873
:1082B0008A2006F0010684F87C60364E002A5CD0E5
:1082C000002B5AD0A06D04F071FF616EA06D05F017
:1082D0000BFA9AF86910012005F010F8012386F8CE
:1082E0008C3086F83C30B9F1000F3FF41CAF4146AA
:1082F0000CA8FFF70DFD16E79DF8291019B90180AC
:10830000817003226EE7017801F0030101290CBF9F
:108310000321022180E70022ADF82A2001228BF8F8
:1083200080201E48002279E7BBF85820ADF82A20AB
:10833000D4F884000DF129020DF12A0108F0C9FDDD
:1083400000287FF451AF40F20D5181E50DF12A0173
:108350000DA800F02DFE08B10D9810B940F21C5187
:1083600076E505223EE740F2265171E510465CE7CE
:108370004FF0010B6FE701267CE7706E04F016FFEB
:1083800005F010FAA5E7B4F807300133A4F8073078
:10839000EFE600BFAC0C0020D80C00202A0D002016
:1083A00010B5064B93F83C2002F0FF0422B91C766E
:1083B00001F096FF204610BD0C24FBE7AC0C00201A
:1083C000094B0A4A10B51A60FFF7EAFF20B14FF4D3
:1083D000A4712720FEF716FF00F050FD044C206525
:1083E00000F050FDA06510BD24160020DC850200C1
:1083F000AC0C0020F7B56D4C089FCDE9000194F856
:108400003C1001F0FF0511B90AB103B127B94FF4CF
:1084100008712720FEF7F6FEDDE9000104F12C0CBF
:108420008CE8030084F8345084F88A5084F835507E
:1084300084F88C506584258584F87C5084F87D50C0
:1084400084F874506566E566A4F870502564A564E8
:10845000A4F84C50256BA3679DF8243084F889302C
:108460006262A76304F0E6FC05F09CF995F97000E0
:1084700004F06CFD6E6AE86904F06EFD304604F0AD
:1084800087FE95F89B0004F071FD236B93F89F31F4
:108490000BB104F0BDFC0AF00AFC95F8692000F16C
:1084A0008201012004F0D0FD414B186804F076FEF3
:1084B0002B69C4F884306B692366236B93F885209D
:1084C00093F86860A2F12901012903D993F8861075
:1084D000292951D193F85E322BB1012E03D0012B03
:1084E0000CBF0126022605F13007314638460AF056
:1084F000B5F8314609F0F9FDAB8F95F86910834264
:1085000028BF0346384684F88B300AF090F895F877
:108510008B7095F86910B5F8446009F0E6FD0FB965
:10852000043080B2864228BF0646F3B284F8883011
:1085300084F8543095F88B3023B105F17801284642
:10854000FFF7A4FB0120FFF767FB236BD3F8B00113
:1085500004F048FE002323606360A360B5F87E301A
:1085600063802B88238095F89B302371EB6E0BB1D1
:1085700001221A6003B0F0BD243A012A0DD8272940
:108580000DD093F8263113F0010202D19B07AAD532
:108590000222012E18BF1646A5E72729A3D193F87A
:1085A000262193F861301340EDE700BFAC0C0020AA
:1085B00024160020014B93F88C007047AC0C00206F
:1085C000024B93F82900C0F3C0007047AC0C0020A8
:1085D000014B93F88A007047AC0C0020E57C020048
:1085E000317E0200797D0200057C0200F0B5070CA7
:1085F000A7F5AA42144B543A012A03EA90231FD943
:1086000027F4004042F6AA22801A18BF0120002257
:10861000162116461F2487EA060562EA050501357C
:1086200010D0DD03ADB245EA5606E503ADB201391F
:1086300045EA52024FEA53034FEA5404EBD1F0BD2E
:108640000020E4E70020FAE7E0FF3F00304BF0B500
:108650005A88B0F85C70B0F85A609D88974228BF7D
:108660001746964228BF16461B2E85B00C462ED0C4
:10867000B5F5A47F2DD040F648039D4201A928BF3F
:108680001D4608F0E4FEBDF80A30BB4228BF3B4659
:10869000E380BDF80C30AB4228BF2B462381BDF8E8
:1086A0000630B34228BF33466380BDF80830AB4282
:1086B00028BF2B46A380FF232370E3881B3B9BB27C
:1086C000E02B08D940F2E7613920FEF79BFD1B2F14
:1086D000CED105B0F0BD63881B3B9BB2E02B02D925
:1086E00040F2E961F0E72389A3F5A4739BB2B3F5E7
:1086F000E06F02D940F2EB61E6E7A388A3F5A4732B
:108700009BB2B3F5E06FE4D940F2ED61DCE700BF66
:108710003C0D002010B501210020FFF7CBF80446E6
:1087200070B90121FFF78AF8044620B94FF4597156
:108730003920FEF767FD034B93F906100AF06FFD31
:10874000204610BD3C0D0020024B987DC04300F038
:108750000100704764110020044B987DC0F3400075
:1087600080F0010000F00100704700BF641100209C
:1087700008B509F04CFC00F079FD00F0A3FB09F00E
:10878000B5FE01F093FD03F0F5FF094B00221A60DE
:10879000084B1B214FF4A47098801A805980064B17
:1087A000064818605A829A7599805A749A8208BD50
:1087B000281600203C0D00206411002003021B003D
:1087C000044B41F64C52C3E902221B221A74FFF7F4
:1087D000CFBF00BF6411002073B5244DAB680363A5
:1087E000234B836104460AF0AAFB064600F05AFBBD
:1087F000830654BF1B236B88A4F85A3058BF1A460F
:108800001C4B297C1B6848BFAA88A4F85C2084F80C
:10881000381066871BB194F9701020889847164E5F
:108820002046314609F070FC01236A886978E385A7
:10883000AB88019116F8121C0091033303329BB2EE
:1088400092B204F1140104F11000FFF7A5F82369B6
:1088500023B940F2BE613920FEF7D4FC636913B935
:1088600040F2BF61F7E7002002B070BD6411002044
:1088700000093D002C16002076110020024B1B68D9
:1088800003B118470C20704728160020034B5A8864
:1088900002801B7883700020704700BF64110020A5
:1088A00037B583781A2B054608D8042B04D9144A07
:1088B00022FA03F3DB0705D412241AE0292B01D096
:1088C0003B2BF9D12888B0F5706FF5D2694609F0D5
:1088D00045FC88B9019B93F8182102F0FF046AB99E
:1088E000AA7883F81921FF2283F81821684608F036
:1088F000E7FE204603B030BD0224FAE70C24F8E777
:10890000200038040188A1F11B039BB2E02B0CD896
:108910004288A2F5A4739BB244F24810834204D863
:10892000034B002059809A8070471220704700BF87
:108930003C0D0020034B5A889B8802804380002016
:10894000704700BF3C0D002038B50278447802F033
:10895000010354EA030102F0020201D1112038BDE3
:10896000BAB98578002DF9D0002B18BF002400E09B
:108970001D46204608F03EFD0028EFD0284608F0AE
:1089800039FD0028EAD0054B00209C74DD749882E4
:10899000E5E7002BECD000242546EAE7641100202F
:1089A00013B50088694609F0F5FB044620B9019823
:1089B00090F82A311BB13A24204602B010BD90F83D
:1089C000CE3003F0FF04002BF5D190F8C5309B07A3
:1089D00006D1FF2380F82A31684608F071FEEBE7E4
:1089E0000249C63009F0AAFDE6E700BF052C0300E6
:1089F000F7B50778EF2F05460C460FD890F9012000
:108A00004378002A0ADB8278900707D113F0100020
:108A10001DD1990603F0030202D51AB1122442E0D7
:108A2000032AFBD01E07F9D42979EA78EE7942EAC5
:108A30000122697942EA0142A97941EA06212E7AA6
:108A400041EA06418A42E9D81F2A0FD8E6E713F027
:108A5000600FE3D103F00702052A05D003F00F01F0
:108A60000D22CA40D107D9D51A07DDD56A7A013A55
:108A7000062AD3D8AA7A032AD0D813F0040102D147
:108A8000023A012A03D8EA7A012AC7D811B9AA7C86
:108A9000032AC3D82A7D48B1012ABFD12A7E012AE0
:108AA000BCD830B91124204603B0F0BD022AF5D15C
:108AB000B4E7DB0712D46B782A7D03F01803082B88
:108AC00011D1022AEED101213846FEF7F3FE064607
:108AD00078B10AF058FBB8B10C24E4E700F0A2F931
:108AE0000028E8D1DEE7022AEDD02B7F002BEAD068
:108AF000D8E701213846FEF7A1FE064640B3154BE4
:108B000093F906100AF08BFB30460AF078FC2946F0
:108B10002070E87430460AF0C8FBEB7E0446002B58
:108B2000C1D00028BFD1B16A0246684608F06BFB8D
:108B3000B06A2246012108F0B2FBB16A68460422FD
:108B400008F061FBB06A2246214608F0A8FBAAE7BC
:108B50000724A8E73C0D002030B50279042A8BB029
:108B600003464FD84088B0F5804F4BD826498D5CDE
:108B7000114400244A79ADF8004042F0100242EA64
:108B800045028D7AC97B8DF8084042EA850242EAA7
:108B9000C10202F01F028DF80020BDF80020ADF8E0
:108BA00009201A888DF80B208DF80E00120A000A91
:108BB0008DF80C208DF80D408DF80F008DF81040C9
:108BC0005A7B8DF811205A798DF812209A79D3F8B2
:108BD00007008DF81320B3F80B209B7B8DF81A301B
:108BE0007F2305908DF81B3069464FF0011302A8D2
:108BF000CDE90734ADF818208DF82440FFF7F8FED2
:108C00000BB030BD1220FBE779C40400F7B506466F
:108C1000FFF780FD04460AF0FDFB3378012B054683
:108C200061D120460AF02EFB00287BD020460AF0B6
:108C3000F1FB18B115B9122003B0F0BD20460AF0BF
:108C4000A2FA08B10C20F7E720460AF0D9FA074645
:108C50000028F7D1204602F0BDFC0028EBD0ED0142
:108C600042F2107339462046ADB25D430AF0BEFBB6
:108C700020460AF0C7FB014658B92A46204601F0B3
:108C8000AFFE08B90020D7E741F66D413920FEF765
:108C9000B9FA39460DF10600FEF798FD064608B907
:108CA0000D20C9E7394600F0E5FBBDF806303380FA
:108CB000314620460AF0B2FB01213046FFF78CFD19
:108CC0002A463146204601F08BFE024610B141F69D
:108CD0009041DBE7144B9B68002BD3D006F58D71D8
:108CE00030469847CEE7002BA5D120460AF0CAFAB5
:108CF000C0B120460AF047FA0028C3D020460AF047
:108D0000EEF8054620460AF0EDF80146002899D114
:108D1000002DB7D02888FEF7E3FD0028B2D041F639
:108D2000B241B3E7422087E73C0D002002780346BA
:108D300072B1427862B142881A2A09D982881A2A05
:108D400006D9044A006810609B8893800020704711
:108D50001220704764110020024B02689A600020C4
:108D6000704700BF641100200378A3F10A02112AA2
:108D70009DBF024A00201374122070476411002026
:108D800008B5052000F082F803F0B4FC014B024A5C
:108D90009A6008BD3C0D00204D86020008B5094BC5
:108DA00001221A7002F006FC0AF0F7FC09F02DF916
:108DB000FFF706FB002008F0F3F9BDE8084000F0DB
:108DC000DBBC00BF480D002010B5064C0649201D35
:108DD00008F0E5FE04F108000449BDE8104008F081
:108DE000DEBE00BF480D00204800002050000020DB
:108DF00010B5084C0849201D08F0D1FE04F1080008
:108E0000064908F0CCFE04F10C000549BDE810400D
:108E100008F0C5BE480D002058000020600000206A
:108E200068000020014B1878704700BF480D0020F3
:108E300010B5064C00F07CFC606808F0A8FEFFF757
:108E4000BFFC00F057FE0123237410BD480D002025
:108E5000014B187C704700BF480D002010B5064C30
:108E6000A06808F094FEE06808F091FEFFF780FC2F
:108E70000023237410BD00BF480D00200048704738
:108E8000590D0020004870475B0E0020C2080449BD
:108E900000F0070001238340885C03438B54704734
:108EA00010000020014BD3E90001704710000020A2
:108EB000034B1868C0F30020400040F001007047E9
:108EC0001000002008B505F0B1F9084A002332F877
:108ED0002310814205D302EB83029378044A137076
:108EE00008BD01330C2BF2D10023F7E78EC4040038
:108EF0005D0F002010B544682388A4F8683194F809
:108F0000683084F86711012B06D0022B04D040F2A0
:108F100011310620FEF776F984F86A3194F8693049
:108F2000012B01D0022BF2D184F86B31044904F5F6
:108F3000AF7009F003FB002384F8243110BD00BF9B
:108F40002B1C0300406808490388A0F85A3190F8A8
:108F5000603080F85C3190F8613080F85D3100F26B
:108F6000511009F0E5BA00BF411C0300024B00227A
:108F700083F822209A8470475E0F0020044B93F8F8
:108F80002220012A1ABF036001200020704700BF81
:108F90005E0F0020054B93F82210012902461DBFE9
:108FA000012083F822009A84002070475E0F002081
:108FB000054B024693F8220020B1136009B19B8C47
:108FC0000B800120704700BF5E0F0020044B93F818
:108FD000220000229A8410B183F8222001207047D9
:108FE0005E0F0020034B93F82200B0FA80F0400996
:108FF000704700BF5E0F002050B90A4A1346012097
:1090000003F8010B0868C2F801008A889A8070474B
:10901000012805D1034B0A689A608A88D8719A8121
:10902000704700BF840F002050B90B4B187888B1EF
:10903000D3F80120B3F805300A608B800120704717
:10904000012806D1044BD87920B19A680A609B891F
:10905000F3E70020704700BF840F002010B9044BD5
:1090600018787047012806BF014BD8790020704757
:10907000840F0020F7B500238A888DF80600ADF82C
:10908000042008680B4A8DF80730019D14780146CA
:1090900002F5A872D8B2844201D8082008E052F83C
:1090A000087F5668AE4208BF8F4203F10103F1D139
:1090B00003B0F0BD980F002030B5094B01465C7835
:1090C000002203F20113D0B2844201D8082005E047
:1090D00013F8015F8D4202F10102F4D130BD00BFEF
:1090E000980F0020F0B5254D95F8984189B022469B
:1090F00005F29911684607F009FC2146684608F018
:10910000A5FF0446B8B300EB4001C9B202A8FEF7C0
:10911000B9F9631E95F8A161DBB2012495F89811A5
:1091200005E0721CB2FBF1F001FB1022D6B206F191
:1091300020020DEB020010F8202C002AF1D103EBE5
:1091400043012031694406EB46022A4411F8187C99
:1091500082F8A27111F8177C11F8161C82F8A3711D
:1091600082F8A41100F8204C013BAA19DBB2FF2BB6
:1091700082F89941D2D109B0F0BD00BF980F00200C
:1091800070B5064688B00C46002A4ED0294A92F89F
:10919000A131D01890F8991119B9FF212820FEF7B4
:1091A00031F803EB43011144013391F8A251E5700A
:1091B00091F8A35191F8A41161710021257180F8F3
:1091C000991192F89811B3FBF1F001FB103382F87A
:1091D000A13192F8C23123B9174902F5DD7009F0C7
:1091E000AAF9657905F03F0545F0400565710D2246
:1091F0000021684607F04AFBE3788DF80F302379A9
:109200008DF80E3004AA0423694630468DF80D50BF
:1092100007F09AF99DF81F3023709DF81E30637097
:109220009DF81D30A37008B070BD03216018FEF7D3
:1092300029F9D6E7980F0020E5900200044B5A78F0
:10924000824286BF1B1893F84A010020704700BF76
:10925000980F0020044B5A78824286BF1B1893F85F
:1092600042010020704700BF980F0020064B0022EB
:109270004FF461711A8083F8C32183F8C421A3F8E5
:10928000C61183F8C2217047980F0020014BB3F834
:10929000C6017047980F002030B50A4B5C788442B5
:1092A0000ED9184490F802012B3003EBC004A579C5
:1092B0000D7053F830001060A3889380012030BDFA
:1092C0000020FCE7980F00200246074810B590F8F0
:1092D000C34124B1417821B1023003F06DFA204638
:1092E00010BD0C46FBE700BF980F00202DE9F74F9B
:1092F0002F4C9A46637883428046894656D9231874
:1093000093F8425185F00105F9B193F84A31E3B978
:1093100045F002070135BAF1000F18D1FA070AD556
:10932000062101FB084104EB0810524601F5857146
:109330008230FFF725FFBB0734D504EB08105246F7
:1093400049460230FFF71CFF2CE02F46E3E794F874
:10935000A1614FF0010B002DE0D0A319019393F808
:10936000991199B90092DAB100F094FB06EB46012D
:109370002144019B81F8A2014FEA102C009A81F848
:10938000A3C1000C81F8A40183F899B194F8983135
:109390000136B6FBF3F103FB1166F6B2013DDAE7E5
:1093A00047F00407384603B0BDE8F08F0027F9E71F
:1093B000980F0020074B5A78824209D91A1892F860
:1093C00042212AB9062202FB003000F58570704761
:1093D00000207047980F0020064B5A78824281BFC8
:1093E0001B1893F83A01B0FA80F0400998BF0020AA
:1093F000704700BF980F0020034B80F870101B6867
:109400000BB1008818477047301600200B2808B5AC
:1094100004D940F20D112920FDF7F4FE014B33F879
:10942000100008BDBEC4040030B500248487B0F825
:10943000404042F210754C43B4FBF2F4A0F84040B7
:10944000541E05FB0343B3FBF2F3C387084BB3FB86
:10945000F2F30133A0F84430038F05FB0344036BA0
:10946000B4FBF2F459434463B1FBF2F1016330BD44
:10947000005A620270B504460D4641BB4FF4227299
:1094800007F004FA012384F88D306FF0360384F876
:10949000D530042384F8D6306FF03B0384F8D730FE
:1094A0006F2384F8D8306FF03C0384F8D9306FF024
:1094B0007F0384F8DB302B2384F8D430FE2384F838
:1094C0000E317F2384F8DA5084F8833070BD01298F
:1094D00023D10023A0F8B43180F8AB31826940F683
:1094E000B833A0F8B0301146438C7830FFF79CFFBA
:1094F000104B1B68062B01D001330CD10E4B1B689F
:10950000063B083307D9E069FFF770F818B9012363
:1095100084F89F31DAE70023FAE70229D6D1B0F8C0
:109520006A32D0F864228169BDE870407830FFF774
:109530007BBF00BFA8150020AC15002003460846DD
:1095400071B13F2B0BD8074AD35C03F07F029142E5
:1095500005D08CBF0120002000EAD3107047012005
:10956000704700BFD6C404002DE9F7430E46694694
:109570001546994608F0F2FD044620B9019F35B919
:10958000012387F88C30012003B0BDE8F083D7F8C1
:1095900010802946404607F046FC01460028F3D0DB
:1095A000134B5B88AB4221D3404607F07BFD97F815
:1095B0008C30A0F80140002B18BF0226494600F865
:1095C000036B2A4607F0A2F92946404607F066FCDD
:1095D00018B98B212B20FDF715FE684608F070F8AE
:1095E000019BA3F8A24187F88C40CCE72046CBE74B
:1095F00064110020FF230B7002234B7083238B70B8
:10960000014B1B78CB7070477C1100202DE9F84F7F
:10961000D0F80480D8F8146030460C4607F034FDCA
:10962000054620B940F253111020FDF7EBFD01462D
:10963000304607F037FDB5F800B01FFA8BF78246C9
:1096400017B940F25711EFE7224B1B6800F10309ED
:10965000D3B998F8003098F8012023706378A4F803
:1096600002B002F00F0223F00F03134323F0C003F4
:1096700063709AF8003003F00303012B0FD0022B24
:109680000DD040F27511CFE7B8F800003A464946D0
:10969000984705460028DCD12846BDE8F88F627857
:1096A00063F305126270304607F002FD054610B9FB
:1096B00040F27F11B8E7FB2F02D94FF4C771B3E72F
:1096C0003A464946201D07F021F9304607F04BFC89
:1096D000E2E700BF3416002038B5134C10220021F9
:1096E000201D07F0D3F801252574102204F108038A
:1096F000002104F11400C4E9013307F0C7F884F82D
:10970000205004F11803C4E90533084A00236362BA
:10971000A36284F82C30C4F82D30C4F8313084F8BA
:1097200035301360A36338BD7C110020341600204F
:1097300010B5084C2378FF2B04D04FF4CC711020C7
:10974000FDF760FD06F046FF2070BDE81040FFF712
:10975000C3BF00BF1D00002010B5034C207806F0E9
:1097600053FFFF23237010BD1D000020014B18780C
:1097700006F05ABF1D000020014B024A1A607047D4
:10978000381600200D9602002DE9F341DFF86881BC
:10979000054608F11407D8F80830D8F81840227A9E
:1097A000012A22D1D8F8382052B1137A1BB9BF212F
:1097B0001020FDF727FDD8F83840C4B9002083E019
:1097C0001A7A012AFAD04D4A1C46EFF3108172B67C
:1097D00050680068506001B962B6A34208BFC8F87B
:1097E0003840237A1BB9EE21E2E73A46EDE7267AC4
:1097F000F6B205232372731E0B2B6ED8DFE803F03D
:109800006A062235676D3E6D6D6D6D5B636813B9D9
:1098100040F20B21CCE72046294698470420EFF37D
:10982000108272B6237A052BD9B24FF0000359D1BA
:109830002372D8F83810A14201D1C8F83830B2BB31
:1098400062B634E0636813B94FF40571B0E7294696
:10985000204698470346C3F30723012BADF80400C5
:10986000C0B22FD0022BDAD11AE0636813B94FF4DB
:1098700007719DE7204698470020D0E763680BB941
:10988000FE2195E70B222A7001221988AA706A71BD
:1098900000221869A5F80310AA7107F064FB0420E0
:1098A000D8F83830A34202D10023C8F83830002855
:1098B0003FF471AF08E0124B29461B6820469847D9
:1098C000034668B9267298B102B0BDE8F08140F253
:1098D00053216DE740F256216AE740F2592167E7CC
:1098E0000220DDE711B940F27A2161E71846A6E7C8
:1098F000002B7FF450AF61E77C1100208011002025
:109900003816002010B51346027A22B140F2013118
:109910001020FDF777FC0A46BDE8104001460148DB
:1099200008F0E6BD80110020044890F82C301BB9E7
:109930000349243008F0F9BD704700BF7C110020B6
:10994000E32403000346064890F83C203AB190F81F
:10995000352022B900F82D3B024908F0E6BD7047DA
:109960007C110020F595020010B50A46037A23B158
:1099700040F209311020FDF745FC0146BDE81040DA
:109980000148072308F0B4BD901100201346027A65
:109990000AB1037270470A460146014808F0A8BDA3
:1099A000801100201B234FF01B12838403848261EB
:1099B0008382C260038539B94FF4A473034AC38418
:1099C0004384C261C3820261704700BF48014801FD
:1099D0000346F0B4B3F85420B3F84840B3F84460F9
:1099E000DF8FB3F84250944228BF14460846B3F8BC
:1099F0004C20B3F85610DC878A4228BF0A46B3F8D9
:109A00004610A3F84220914238BF1146A64238BF03
:109A10002646A742A3F84460A3F846101FD1AA1A0D
:109A200018BF0122B3F84A50B3F85040B3F852704F
:109A30009E8FB3F84010A54228BF2546B3F84E408C
:109A40009D87BC4228BF3C46AE42A3F8404002D1AD
:109A5000A14200D12AB1F0BC034908F06FBD012238
:109A6000E0E7F0BC704700BF432503000B8BA2F872
:109A70000B304B8BA2F80D308B8BA2F80F30CB8BB9
:109A8000A2F809000249A2F81130104608F050BDB2
:109A900093250300094AD2E90003434083EAB01149
:109AA00081EA43214FEAF3435360054B1160584369
:109AB0004FEAF06000EB8000704700BFBC1100204F
:109AC000BB79379E094AD2E90003434083EAB011CB
:109AD00081EA43214FEAF3435360054B1160584339
:109AE0004FEAF06000EB8000704700BF20000020CC
:109AF000BB79379E10B50A4C09480821FDF7C2FC16
:109B0000D4E900321343F7D0064CFFF7DBFF2060A7
:109B1000FFF7D8FF236860601843F6D010BD00BF80
:109B200020000020BC110020174B184A9A60184AE8
:109B30005A60184A1A60184A9A62184ADA62184A31
:109B4000DA60184A9A61184A1A63184A1A62184A5F
:109B5000DA64184A9A64184A5A62184B184A9A608A
:109B6000184A5A62184ADA62184A1A61184A5A613F
:109B7000184A9A61184A1A63184A9A64184ADA64A9
:109B8000184A9A63704700BF3C160020492803001A
:109B900079280300E5280300492A03009D2A0300D1
:109BA000D99E0200B32A03003DA10200C59F020016
:109BB000812B03009D2B030011A002003C17002005
:109BC00065280300532B0300D52A0300792A0300DC
:109BD000F92A0300659F0200232C0300CB2B03000E
:109BE000BD2B0300392B0300044B054A5A65054B76
:109BF000054A1A65054A5A65704700BF3C160020A1
:109C00008F2903003C17002075290300F529030064
:109C1000054B064A9A65064A1A66064B064A9A6535
:109C2000064ADA65704700BF3C160020C71D0300D6
:109C3000691E03003C170020131D0300EB1F0300E7
:109C4000023A08B5232A00F29980DFE802F0129761
:109C50001E9A9A2E9730979A3540449797489A9A29
:109C60005C5C737397979797979797979797977A5F
:109C7000879002784368012A02D193F8103101E0FD
:109C800093F819314B7002200EE04268D2F8BE31D1
:109C9000C1F80130D2F8C231C1F805304368D3F8B9
:109CA0000431C1F809300D2008BD4368E5E700F034
:109CB0000BFA0028F8D147E059228A7000221023BD
:109CC000CA70A3224B700A714B710620ECE74368FF
:109CD00093F80A31D6E7084600F0E4F9E9E702789C
:109CE000436852B993F810213AB193F80D214A70A4
:109CF00093F80C318B700320D6E793F80B214A7050
:109D000093F80A31F6E74368B3F854204A70120A10
:109D10008A70B3F81221CA70120A0A71B3F850207F
:109D20004A71120A8A71B3F81031CB711B0A0B7297
:109D30000920B9E7436893F826214A7093F8273140
:109D4000D8E7114B1B6823B940F20D515120FDF7A4
:109D500059FA0246232098470420A5E70A4B1B68BE
:109D6000002BF1D002462420984705209CE7064BA3
:109D70001B68002BE8D002462520F5E74FF4A161CF
:109D8000E4E7012090E700BF3C1800203F289ABF7D
:109D9000024B53F820000020704700BF3C16002003
:109DA0003F289ABF024B53F820000020704700BFA5
:109DB0003C170020F7B545682E6904464FF6FF773B
:109DC0000DF102010DF101023046ADF8027007F00D
:109DD00080F801A9304607F0A1F840B1019807F0DA
:109DE00065F9616800220272FFF7BEFDE8E70449E9
:109DF00005F19E0003B0BDE8F04008F099BB00BF3C
:109E0000DD270300F0B5044685B00D46FF2600F8B7
:109E1000A56C10F8A63CF3B1174F3B781BB15F213E
:109E20001F20FDF7EFF90C21381DFDF72BFB3E70CD
:109E3000002304F8A53C2A46072302F8033BD4F884
:109E40000930C5F80330D4F80D305360D4F8113020
:109E5000936005B0F0BD01A80C21FDF713FBA4F53C
:109E6000B473039A1A6001AB03CB44F8AE0C44F808
:109E7000AA1C04F8A66CDBE7C411002010B5054C41
:109E800023782BB90C21201DFDF7FCFAFF2323704A
:109E900010BD00BFC4110020024690F8C631BBB906
:109EA00090F8C73103F0FF010BB100207047094B58
:109EB00018780028F9D01970D968C2F80411043351
:109EC00003CBC2F8BE01C2F8C211FF2382F8C6312B
:109ED00001207047C411002038B5426892F88630DE
:109EE00004460D463BB1132B05D0113B0F2B8CBF05
:109EF0000120082038BD92F8C43013B9204608F07C
:109F00002AFC6268D5F80B30C2F8B631D5F80F30AC
:109F1000C2F8BA316368D5F81320C3F800211A8853
:109F2000A3F87522D5F80120C3F87722D5F80520CB
:109F3000C3F87B226368B5F80920A3F87F22636821
:109F4000002583F8C6516068054900F51B7008F0CC
:109F5000ECFA6368162283F886202846CAE700BF19
:109F6000059E020038B5436893F88620202A0446EF
:109F700004D04FF410711F20FDF744F993F8C4107A
:109F80001D88002283F8C32003F5C97069B10B490D
:109F900083F8C420A3F89C5183F89B2108F0C5FAEC
:109FA0006368002283F8862038BD012283F89B1164
:109FB000A3F89C51024983F89E21EFE7352A03005C
:109FC000272A030038B54568AB6F13F0010419D197
:109FD000D1F801200C4BD1F8051013400B4AC5F8FD
:109FE000D430C3F3076343F008030A4085F8D73041
:109FF000C5F8D82008F0AFFBAB6F43F00103AB67A7
:10A00000204638BD0120FCE72FC904F76FDB008034
:10A0100010B5406890F88530042B2CD1D1F8013070
:10A02000D1F80540C0F8D430C3F3076343F0080308
:10A0300080F8D73000234A1CC0F8D84080F8BE30E2
:10A0400080F8853090F8743103F0FF040BB10020E4
:10A0500010BD0388A0F8763180F87541D1F8013041
:10A06000C0F878315368C0F87C31044900F5B67007
:10A0700008F05BFAEBE70120EAE700BF172B0300CB
:10A08000406890F8743153B90388A0F876311A23E8
:10A0900080F87531024900F5B67008F046BA70478D
:10A0A000172B030010B50446FEF7FCFE044A054BCF
:10A0B00002400B40C4F80120C4F80530092010BD4F
:10A0C0002FC904F76FDB008037B50C464568FEF7F3
:10A0D000E9FE0A4A0A4B0A4095F8D410019203405F
:10A0E00000930B408DF800306B4603CBC4F80100A1
:10A0F0000920C4F8051003B030BD00BF6FDB00803D
:10A100002FC904F738B5DB04154604D5C37C13B159
:10A110000023036338BD046B0134046308F062FD5F
:10A12000436B9C42F6D30023036303492846BDE8F2
:10A13000384008F003BA00BF732B030038B54468F9
:10A1400094F88530012B054602D0A36F98073AD4C6
:10A1500094F8C5309A0713D44A7884F8CF204A88F7
:10A16000A4F8D0208A88A4F8D220D80743F00202AD
:10A1700084F8C5200FD5154904F1C60008F0DEF9B2
:10A1800094F8C530D90711D4A36F9A0708D5582180
:10A190004020FDF737F894F82A31002BEBD1EFE798
:10A1A00043F00203A367284608F0D5FA94F88530F7
:10A1B000012B4FF0000301D0002038BD84F885301A
:10A1C00084F8BE30F8E70120F7E700BF052C030054
:10A1D00070B54568044602F0ABFA054B85F883007C
:10A1E0001B6801461BB12046BDE87040184770BD92
:10A1F00044180020024B1B6803B11847704700BF8A
:10A2000040180020F0B51F4D2B78002414709BB12E
:10A21000013B6D68DBB21E1B012E0FDC05EBC40693
:10A2200055F8347076688E4208BF874227D0B8420E
:10A2300071EB060612D214700020F0BD1E197710C3
:10A2400005EBC70E55F837C0DEF804708445C6F339
:10A2500047068F412CBF33463446DCE705EBC30489
:10A2600055F8335064688C4208BF854206D0A84236
:10A2700071EB040428BF01331370DDE71C46147032
:10A280000120DAE7E411002010F0070208B503D03E
:10A2900063214820FCF7B6FF18B1034B19725860D0
:10A2A0001A70C80008BD00BFE4110020014B002255
:10A2B0001A707047E4110020FF230B70074A0D232A
:10A2C0004B7082238B701368C1F803305368C1F858
:10A2D00007309368C1F80B30704700BFFA110020B7
:10A2E00002481622002106F0D1BA00BFFA11002060
:10A2F00082B002AB03E903000B48437D93B15306E0
:10A3000010D50A880280D1F84022B1F87E30426030
:10A31000D1F8442205498260438002220C3002B009
:10A32000FFF734BB02B07047FA110020B9A2020057
:10A33000094B53F8203070B503F523430C461646FD
:10A34000A1334FF47A72B3FBF2F503F0F1F8344421
:10A350002C44204470BD00BFD8C504002DE9F04F47
:10A360008DB09A4690F86930029304468946069269
:10A3700007F059FC834694F87300FFF747F88344CD
:10A3800008F095FC94F886300393069B1FFA8BFB2C
:10A3900000F1590783BB94F88430032B2CD1039B25
:10A3A0000D2B29D1B4F85C324B4525D1D4F8E031DE
:10A3B000C4F8D031A369B4F8B421C4F8D431B4F8E6
:10A3C00052321344C4F8D831204602F063F9D4E97C
:10A3D0009823A262B4F85E22A285D4F86822226291
:10A3E00041F64B529342A3618CBF0023012384F8B2
:10A3F0007230022384F88430B4F85052B4F87E806E
:10A40000A9EB05052DB204F50873A9EB0808002D8A
:10A4100004930FFA88F818DAD4E98E23C4E992235A
:10A42000012345460493CB4B1B7813B103F0F2FE96
:10A4300070B9002694F88430032B00F2E081DFE845
:10A4400013F06C006901BD008D01CDF810A0EAE7A2
:10A45000B4F8C831012BECD994F88430022BE8D041
:10A4600094F8F261002EE4D194F87300FEF7CEFF69
:10A4700094F8843000F5C86B012B1FFA8BFBD9B21E
:10A480003ED194F88920A36A032A32D1D4F8D4218A
:10A4900013445946D4F8D401079303F07FFED4F84F
:10A4A000D061079BD4F8D821C4F8D001861B594647
:10A4B0001846564303F072FED4F8DC31C4F8DC01D0
:10A4C000C31A5946A0691E4403F068FEB4F8B431BB
:10A4D000D4F8D82143445B1B9B1AD4F8E021013BFC
:10A4E000821A02FB03660123C4F8E00184F8F2310A
:10A4F000A0E73046079307F01CFE079B0344C8E71C
:10A50000A069594603F04AFEB4F8B461D4F8E031CA
:10A510004644761BC31A5E43E5E70121002007F09D
:10A5200008FE8046A06A5946404403F037FE59466B
:10A53000C4F8DC01A06903F031FE09A9C4F8E00108
:10A540000AA802F0F5FE099B0093D4E99201DDE927
:10A550000A2303F0F5FE0290204608F0C0FBA16A32
:10A56000D4F8542294F869008D1802F0E9FFD4F869
:10A57000DC11029B203D6D1AED1B454400F5234084
:10A58000ED1AA1304FF47A73B0FBF3F0A38D3031A4
:10A590002D1A03EB410194F869003A46FFF7C8FE13
:10A5A000D4F85432EB1A2230B3F5917FC4F8E401A9
:10A5B00059D240F2C7413020FCF724FEA36AD4F8F8
:10A5C000D4015946184403F0E9FD5946C4F8DC01AA
:10A5D000A06903F0E3FDC4F8E001204608F07FFB2A
:10A5E000A36AD4F8D4511D44B4F8B431002B40F020
:10A5F0008D80BAF1000F00F0898094F8690002F0B4
:10A600009FFFD4F8DC11D4F8403294F869206D1A19
:10A61000203D1D44D4E98EBC4F4B53F82220A5EBBE
:10A620000B054FF47A7302F2E732B2FBF3F21544F2
:10A63000ED1B00F52340A130B0FBF3F02D1AD4F848
:10A64000D821D4F8D03194F8690002FB0313A18D0E
:10A65000303301EB43013A46FFF76AFE0123C4F8A9
:10A66000E40184F88430A369D4F8E021E73B9B1A25
:10A67000DF1B002384F82032D4E992328742A5EB15
:10A68000060528BF07465B1942F10002C4E98C3277
:10A69000C4F8B07104F1300007F0C7FF042384F858
:10A6A0002932D4E98C23C4E99223B4F8A031A4F868
:10A6B0005092A3EB09031BB2002BD4BF002201224E
:10A6C000520084F82822039A38440D2AC4F8240240
:10A6D00000F09880BAF1000F40F0978094F8843031
:10A6E000002B00F0AF80A169D4F8E03104F50870C8
:10A6F000C91A07F0CCFC80B2002800F0A380169B9A
:10A7000003B1188001200DB0BDE8F08FD4F8DC1142
:10A710006D1A94E7D4F8E011A369B4F8B421D4F821
:10A72000D801D4F8D0C15B1A5D43D4F8DC3142447F
:10A73000121A3033013A0CFB003301FB0233A18DB6
:10A7400094F869003A4601EB4301FFF7F1FDC4F8C4
:10A75000E40188E710120020D8C50400D4F8E0E135
:10A76000A369A3EB0E035D4394F88530292B03D036
:10A7700094F88630292B0CD1B4F85C32A9EB030392
:10A780001B0406D4029A94F85F32002B18BF1A46B5
:10A790000292049BB4F8B4C143B3BCF1000F25D1BD
:10A7A000D4E99023D4E98E01904271EB030302D3E4
:10A7B00040F21B51FFE694F869102C4B53F82130FE
:10A7C000D4E98E01CDE904010498203A121A03F26B
:10A7D000E7314FF47A7B03F52343B1FBFBF10A44E5
:10A7E000A133B3FBFBF3D21AD21B15440CEB0801C7
:10A7F0000EFB01F1303102983A464900A5E740F2DC
:10A800003351D8E6BAF1000F1CD0B4F8C80118B320
:10A81000B4F8CA1194F8CC21A4F8CA1101FB0222A1
:10A82000904201F101050DDD002B0BDD002384F8C2
:10A830002832A4F8CA51FFF72DF900F007000130C3
:10A8400084F8CC0104F5087104F5FC7004F0ECFE0A
:10A8500020B940F27D51AEE60146DBE7069B83F06E
:10A86000010384F8F03100204DE700BFD8C5040093
:10A870002DE9F8430E46044618B9D5213020FCF7DF
:10A88000C1FC052900F2A780DFE801F00376413D15
:10A89000A52E03F0A9FEC4E94601204600F0BCFF46
:10A8A000D4F80C01CB3803F043FD204608F0B2FD8C
:10A8B000054600BB0146204608F0E9FC00F1E5062C
:10A8C000D4F80C01B04209D2301A322838BF3220F5
:10A8D000032103F059FE60B103F02EFDC4F80C61B2
:10A8E000204608F0A7FD45B12046BDE8F84308F032
:10A8F000A2BD0125F2E70025F2E7D4E94623C4E929
:10A900004023BDE8F883BDE8F84302F01DBD08F020
:10A91000C9FC042384F811318146884603F006FD02
:10A9200007220F46A9FB023102FB0811D4E940526D
:10A930005B1941EB0205D4F8E8203AB159EA080264
:10A9400004D0984277EB050228BF012684F81061F5
:10A95000D4E94826121A66EB070694F8301139B983
:10A96000012A76F100010BDA204600F05DFF03E0DA
:10A97000012A76F10006F7DB002384F82831C0E7CE
:10A98000984277EB05010FD259EA08080CD01B1A40
:10A9900065EB07019A4276EB010005DB012B71F1B3
:10A9A0000000A4BF1A460E460C490123914284F8C8
:10A9B00029314FF0000384F80831B341B8BF0A468B
:10A9C00004F1C00004F5847104F0E2FE002898D17F
:10A9D00040F2BA6152E7F12150E700BF0040420F58
:10A9E0002DE9F84304460E46154690F8283103F049
:10A9F000FF07002B40F0948000F1C0083946782210
:10AA0000404605F043FF47492246404604F006FE13
:10AA1000C4F8E860FF2384F8283166B1FFF752F8E4
:10AA200000F00700013086F8CC013F49324606F5B8
:10AA3000FC7004F0F3FD40F202434FF00009A4F86B
:10AA4000103184F8089103F0FBFB00F19E062046CC
:10AA500008F0E0FCB6B20146C0B307F0E4F800F538
:10AA6000CD6189B2284603F099FB2844C4F80C0153
:10AA700003F05CFC301841F10001C4E946010120FB
:10AA800084F8EC00A4F81E9008F077FDE53D2D1A3F
:10AA9000C4F8F0504FF0FF356FF00041D4E9462381
:10AAA000C4E948510025C4E93E23C4E9402384F8A1
:10AAB000295142F2107204F58471404604F068FE98
:10AAC00038BB40F2BB113020FCF79CFB204608F05D
:10AAD000DEFBDFF85890E530C4F80C01B9F802004D
:10AAE00048B1E08B38B1FEF7EDFFB9F80230B0FBAA
:10AAF000F3F202FB1300064403F018FC361841F190
:10AB00000001C4E94661002DC4D0AD1941F1000136
:10AB1000C4E72946204608F090FC3846BDE8F88393
:10AB20000C27FAE771A80200F92C0300101200208C
:10AB3000F0B5002385B0CDE9003301238DF8063050
:10AB40006846FCF7F1FE70B1114E0123337100230A
:10AB5000CDE9023302A8FCF7E7FE044638B1002332
:10AB6000337105B0F0BD009808F0BCF9E8E7029D2C
:10AB700095F88430002BEDD005F5FC77384604F0CD
:10AB8000C7FD384604F002FE85F88440E2E700BFC6
:10AB900010120020054B002201215A7119701A7100
:10ABA00042F210725A80FFF7C3BF00BF101200209C
:10ABB000014B5871704700BF1012002008B502F019
:10ABC000D3F8044B9A6882422ABF1879002080F09B
:10ABD000010008BD101200202DE9F34704460629A4
:10ABE00000F2DA80DFE801F0048673838A8FD300F5
:10ABF000D0E98E01D4E99023904271EB030354D243
:10AC000094F8F231002B50D094F88430032B4CD1BF
:10AC100008F04DF894F869A0814607F004F806465C
:10AC200094F87300FEF7F2FB064494F87300FEF705
:10AC3000EDFBD4E98E23D4F84072D4F8B0518046AD
:10AC40005046BF1A02F074FC554A52F82A20A5F16A
:10AC5000590302F52342A1324FF47A71B2FBF1F2AB
:10AC60009B1AA3EB09031B1A09F1820909EB53098B
:10AC7000B6B2603B08F5C86873431FFA88F8B3FBA7
:10AC8000F8F360335A08A9EB53039F4202D391446F
:10AC90004F4501D903F0C4FAA069314603F07EFAAA
:10ACA0000023C4F8E00184F8F2313E4B1B7903F035
:10ACB000FF0263B90092B4F8A41101232046FFF704
:10ACC0004DFB38B140F2D6613020FCF79BFA0423EB
:10ACD00084F8843002F01CFA04F08CFCB4F87E2076
:10ACE000A4F8EE210023A4F8523284F8F13102B026
:10ACF000BDE8F087032380F88430F8E708F0FAFD18
:10AD0000C4E99001F3E790F86900264F07F0D7FFF8
:10AD1000B530D4F8E031A56995288CBF0020C0F18A
:10AD20009600C218954288BFED1A7B798CBF2D1A08
:10AD300000251BB9236B9D4228BF1D4604F130003E
:10AD4000D4F8B06107F071FC0644022003F0F0FB78
:10AD5000AD1B25EAE575854228BF05460221284638
:10AD600003F012FC10B103F0E7FA2E44012340F285
:10AD700045123146204607F0B5FCD4F8B031B86032
:10AD8000A069184402B0BDE8F04703F0D1BA02B0A0
:10AD9000BDE8F04707F0A3BF40F2A47194E700BFFD
:10ADA000D8C5040010120020014B5880704700BF26
:10ADB00010120020074A03461068D3F84920C0F853
:10ADC0000320B3F84D20A0F8072093F8481007F0AF
:10ADD000C4BA00BF1C12002070B504460E46658838
:10ADE000807D15F00401134618BF04F15701324667
:10ADF000FEF77CFA4107054621D4C2070BD5012393
:10AE000084F84830A07DFEF7D5FA0368C4F84930CD
:10AE10008388A4F84D30AB0701D4012070BD094BE5
:10AE20001868D4F85730012184F85610C0F809305A
:10AE3000B4F85B30A0F80D3007F098FAEDE7002089
:10AE4000ECE700BF1C12002038B5C38C0F4D013356
:10AE5000C3F30E03C3842B7C04462BB102F028FA03
:10AE600001F0DCFC00232B7400232B7194F8693073
:10AE70002BB101212046BDE8384008F002B9637CBF
:10AE800013B1E28C9A42F4D20021F3E71C120020A5
:10AE900010B5074C2379012B05D1237C1BB102F09F
:10AEA00007FA01F0BBFCA069BDE81040FFF7CCBF7A
:10AEB0001C12002070B5254C2379012B04D04FF4CF
:10AEC00048612D20FCF79EF998B90125237C1BB120
:10AED00002F0EEF901F0A2FC002D36D0A06908F0D6
:10AEE0001CF868B302F0C4F8E369BDE870409B68E1
:10AEF00018472168A26911F8095B02F14903E809C2
:10AF000092F8482007F084F80028DED0206800215D
:10AF100007F051FA0028D8D02379A069012B02D07C
:10AF200040F65A41CDE72379E26903F18043526943
:10AF3000013B05F00F0152F8233098470546C5E75D
:10AF4000A069BDE87040FFF77FBF70BD1C120020F4
:10AF5000074A0346906903B909B9FFF775BF13792A
:10AF6000D26903F180431269023B52F8233018473B
:10AF70001C1200202DE9F043032985B00546174631
:10AF800007D14388980723D40024204605B0BDE8A4
:10AF9000F083428890F86830D107DBB2F4D5002BFB
:10AFA000F2D14FF00108DFF8D49099F81060C6B1E3
:10AFB00007F063F80828387016D002AA0DF10701CF
:10AFC000FEF76AF938B940F6F5612D20FCF71AF959
:10AFD0004FF00208E7E79DF8070002A907F04FFECF
:10AFE00006463B78082B08D1D9F8001011F8030B5E
:10AFF000C0F3801007F043FE0646D9F8001095F81C
:10B000004F2011F8030B05F15003C0F3801006F038
:10B01000FFFFD9F80010044611F8030BC0F38010AD
:10B0200007F021F88146FEF7D7F940B1B9F1080FD2
:10B030001BD04846FEF702F980F00103D8B23A78F7
:10B04000082A14D01CB9AC7DA21A544254416A8813
:10B0500053079AD4002897D176B9EC7C444518BFA1
:10B06000002C0CBF012400248FE70020E7E780F0CC
:10B0700001022240D4B2EAE7344686E71C120020DF
:10B080002DE9F04F85B008230DF107020521044694
:10B090008DF80730FFF76EFF064620B900263046D0
:10B0A00005B0BDE8F08F734F39687A7C11F8030B57
:10B0B00007F11203C0F3801006F0AAFF80460028B3
:10B0C000ECD13B68A169184691F88D2010F8035B1C
:10B0D00002EA551202F0010281F88D20D3F8032014
:10B0E000C1F803208288A1F807201D46A26915F83F
:10B0F0001F1BC1F380119170D3F81F00029002A9A9
:10B1000028790871D3F80F00D061587D1D7D0004A7
:10B1100040EA0520DD7C28435062B3F8190082F82C
:10B12000728040F2E24909FB00F090619D7DC5EB21
:10B13000451005EB800505EB85056D009585B3F899
:10B14000170009FB00F09062B3F81B001084B3F8FD
:10B150001D00508493F8243003F01F005B0982F82F
:10B16000990082F87330A56994F912A005F18D0059
:10B1700007F051F840F20113A5F868304FF0FF0BCB
:10B1800085F86AB0414605F13000FEF70BFC5146E8
:10B190002846FEF731F9A36984F873801A88A4F869
:10B1A000742084F891B04FF6FF72A4F892209A6947
:10B1B000B2FBF9F2A4F88A201A8CA4F88C205A8CDD
:10B1C000A4F88E2093F8732084F89020627D9DF877
:10B1D000070004F17E015AB394F84820012A27D1D0
:10B1E00094F84E2002F0C002402A21D1D4F8492020
:10B1F000C4F87E20B4F84D208A809A7884F87720AD
:10B20000082803F1030504F18401D3F8033004F1A5
:10B21000780227D0C4F88430AB888B8004F17701A2
:10B22000FEF73AF840B94FF43E612D20FBF7EAFFF4
:10B230000022C4F87E20DFE794F8773043F0020361
:10B2400084F8773004F16A000B4907F06EF90B4B74
:10B25000A0691B6800223A71002B3FF420AF214601
:10B2600098471CE7A367AB8893800023C4F8843019
:10B270008B80E7E71C120020AB3103004C18002044
:10B28000032937B5044604D0052953D0012003B063
:10B2900030BD08230DF107028DF80730FFF76AFE75
:10B2A0000028F3D0237C284D03B39DF8070094F8C1
:10B2B000B630DBB9237884F8B730082804F1B90236
:10B2C00029D004F1B801FDF7E7FF20B940F66E710F
:10B2D0002D20FBF797FF94F8B83043F0020384F871
:10B2E000B8301A4904F1AE0007F01FF92B680422A8
:10B2F0001A7006225A702046FFF75CFD286894F801
:10B300003820616B07F048F8032328682B7101F09F
:10B310004DFF0020BBE72868034613F8031BC1F369
:10B32000801184F8B810D0F80310C4F8B9109B88C5
:10B330009380D6E7064B1B68002BEAD0984780F035
:10B340000100C0B2A3E700BF1C120020933103002C
:10B3500048180020F8B504460F4619B300F120053F
:10B36000284608F0E3F8A0B963881A072ED52846C6
:10B3700008F0F3F80646284608F0D8F8301AC0B2AC
:10B3800008F0FBF8474A936803442846936008F0A6
:10B39000A9F8284608F0ABF801F0E8FD217925204E
:10B3A00001F006FD3F4E94F85620306800230370EC
:10B3B00043706388103B0D2B64D8DFE803F05F63B4
:10B3C0005B0C634063636363636363402046BDE873
:10B3D000F840FFF739BD0623437020230370204651
:10B3E000FFF7E8FC638823F008039BB2152B05D018
:10B3F00094F83020E16A306806F0BFFF306801F051
:10B40000D5FE022321793371002001F0BDFD0546F0
:10B4100007B9F06063881B0704D508F0ABF8054452
:10B42000C4F8F4506388103B0D2B36D8DFE803F0E6
:10B4300038352F2F352F353535353535352F0C230C
:10B4400043700346212103F8091B52B1D4F8572059
:10B45000C0F80920B4F85B209A80012106F086FF2D
:10B46000BDE7226DC0F80920B4F854209A8094F802
:10B470004F10F3E7062303704370B0E70223037015
:10B480000623F9E740F259612D20FBF7BBFE217935
:10B490000120BDE8F84001F031BF40F6F341F3E789
:10B4A000F8BD00BF1C12002038B54388102B04469D
:10B4B00004D1BDE838400121FFF74CBF0B4D2B7C78
:10B4C00023B101F091F9402001F0E6FE286801F077
:10B4D0006DFE608810F0040002D1217901F00EFFAA
:10B4E000002001F0B7FE01232B7138BD1C12002093
:10B4F000024B01219869FFF72DBF00BF1C120020ED
:10B5000010B5124C237C1BB101F0D2FE01F086F97C
:10B51000A06907F002FD38B12379012B09D040F66C
:10B5200084312D20FBF76EFEA069BDE81040FFF7C7
:10B530008BBC2379E269A069D26803F18043013BA7
:10B54000BDE8104052F82330184700BF1C120020FD
:10B5500010B50748037903F0FF0433B914222146DC
:10B56000043005F093F9204610BD0C24FBE700BF22
:10B570001C12002010B50A4C00232371FDF77EFC3D
:10B580002060FFF7E5FF20B14FF442712D20FBF75B
:10B5900039FEE36913B940F20B31F7E710BD00BF84
:10B5A0001C120020014B024ADA6170471C12002075
:10B5B00074B80200034B044A1A60044B044A1A6030
:10B5C000704700BF4818002081B002004C180020CE
:10B5D00033300300F8B5057DAF1E0446FFB2002DE1
:10B5E0003AD0012F2DD800F1500190F84F0006F00D
:10B5F0003AFD0828064624D0FDF72CFE10BB023D7C
:10B6000018BF0125012F8CBF0027012784F848505F
:10B610006775A675FDF73AFE054602F087FE154BE5
:10B620000022E5FB0301C4E9100184F8562011460D
:10B630002046FFF7D1FB70B940F2A3412D20FBF764
:10B64000E1FD0826022D09D104F149010020FDF792
:10B65000EBFC60B90020F8BD0826F5E704F14901CC
:10B660000120FDF7E1FC0028F4D00125CAE7002500
:10B67000C8E700BF40420F00F0B5444E327985B0B4
:10B68000044602F0FF0312B90278FF2A04D140F603
:10B69000DC112D20FBF7B6FDB36080F869303C4B20
:10B6A00000933C4B01933C4B0293F36968465B6803
:10B6B000039301F073FD01F0BDFB01F0F9FD01F012
:10B6C000ADF8364801F048FC04F12005344801F09B
:10B6D0005FFD284607F006FF284607F008FF01F047
:10B6E00045FC2179252001F063FB94F9120001F05B
:10B6F0002DFC04F12C01A06A05F0F6FD04F13401E3
:10B700000746A06A05F017FE0546DFB1237FCBB1DF
:10B71000B4F92650ED43ED0F637D13B963885B07E1
:10B7200009D5D4E910126FF000439A4208BFB1F175
:10B73000FF3F0DD19DB930680330FDF7C5FD307472
:10B7400005B0F0BD002DE7D0657F002DE0D1E3E727
:10B7500002F0ECFDD4E9102390429941EAD3012292
:10B7600029462046FFF738FB50B1FDF78FFD05460F
:10B7700002F0DCFD0B4BE5FB0301C4E91001DAE745
:10B78000002DD8D040F61A2183E700BF1C120020FC
:10B7900001B50200B5AE020051AF0200D6BE898EDF
:10B7A0005555550040420F0073B50446FFF764FF3E
:10B7B00000212046FFF7CEFD236E0BB101221A6057
:10B7C0006388DB0721D50023114EA569CDE900333D
:10B7D000FF2373746846FCF7A7F8B0B9009CA54234
:10B7E000F8D06A7A607A05F10A0304F10A0106F0DA
:10B7F0000FFC0028EED0A3787374D4F80330C6F899
:10B800001230044BB4F807209A8002B070BD00BF1C
:10B810001C1200202E120020024B9861DB691B686D
:10B82000184700BF1C12002043881B0710B50446B0
:10B8300011D583690A493C2280F873201B88A0F83F
:10B840007430FF2380F891304FF6FF73A0F89230E8
:10B850006A3006F06AFEFF2384F8693010BD00BF2D
:10B86000AB310300F7310300A9B40200FD3103003E
:10B8700081B20200A9B7020091AE0200F1B4020049
:10B8800064B8020068B8020070B8020001380228EB
:10B8900008B503D9C4212F20FBF7B4FC13290A4BA8
:10B8A00005D811290CD8102907D0D221F3E7152982
:10B8B000FBD103EB4003D88801E033F8100008BD4A
:10B8C00003EB40039889FAE75AC504000C4A117843
:10B8D000034689B9906833B9B0F85810828F914205
:10B8E0000AD8FFF76BB993891B0707D590F8870033
:10B8F000073818BF012070470020704701207047AB
:10B900003C1200202D4A38B5948903461C43402B35
:10B910009068948104D10421BDE83840FFF75CB9F8
:10B92000802B01D10521F7E703F00304032C04D198
:10B9300040F62E313120FBF765FCDD0706D50C689B
:10B9400011612478062C0FD00B2C19D09C0706D53A
:10B9500009680978117505291DD00B2927D09B0688
:10B9600044BF0823137038BD90F886401C2CEDD1DD
:10B9700000240025C0E93845012480F88A40E5E725
:10B9800090F88640122C01BF002480F88A400124E0
:10B9900080F8C440DAE790F886101829DFD1002437
:10B9A0000025C0E93A45012180F88B10D7E790F8CF
:10B9B00086101129D3D10021F6E700BF3C120020E8
:10B9C00073B504464068836F13F0300F0D4649D1BC
:10B9D000B1F805101A2904D9B5F80730B3F5A47FDA
:10B9E00006D22978204602B0BDE8704006F0E5BED8
:10B9F000B5F801201A2AF4D9B5F80360B6F5A47F8A
:10BA0000EFD30096303006F022FE174B9A8992074A
:10BA10000DD51B7D142B0AD16268936F43F0100380
:10BA20009367204606F097FE002002B070BD636861
:10BA300093F88520212AEFD093F81B31002BEBD10E
:10BA4000636893F81A31002BE6D16268936F114650
:10BA500043F02003936731F8300B02F59F72FEF735
:10BA600005F8DEE70120E0E73C12002013B50446AC
:10BA700001A8FDF783FA20B940F617113120FBF732
:10BA8000C1FB22220021019804F000FF0199074820
:10BA900001F8034F2246FEF7D3F8FDF77BFA10B901
:10BAA00040F61E11EAE702B010BD00BF40120020B0
:10BAB000254B70B59C6894F85E5294F85F62002D37
:10BAC0003ED194F86810002E3CD194F8693084F887
:10BAD000681084F86930FF2384F86A301B4B1B68B8
:10BAE0000BB12046984794F82431012B01D03543FF
:10BAF00003D017480021FDF7FDF904F13006304668
:10BB000006F093FD04F2351105462046FDF760FF6F
:10BB100020460621FFF760F8304606F086FD854294
:10BB200004460BD202F062FD0146601B322838BF8A
:10BB3000322002F029FD10B102F0FEFB012070BDA1
:10BB40002946C0E73346C2E73C1200205C180020BB
:10BB5000401200202DE9F8436A4D0646AC680028E3
:10BB600040F08C80AB891A072DD594F80E31FE2B4E
:10BB700004D140F2F7513120FBF744FBFE2384F857
:10BB80000E3194F886301E2B06D184F8C300281D90
:10BB900006F0EBFD84F8866094F88530242B0AD1FA
:10BBA00094F88630A3F12402062A2AD9322B28D011
:10BBB000252384F8853094F88730072B02BF0223B1
:10BBC0006B7584F80E31AB89DB071CD4AB895F073A
:10BBD0007CD4990740F18480287DAB6801220D2830
:10BBE00083F80F2179D0112800F08580072800F014
:10BBF0008480FEF7D5F8034600286FD140F2EA5161
:10BC0000B9E73223D5E7D5F80880296998F8863056
:10BC1000D1F80090113B0F2B99F8007009D8BB1E8A
:10BC2000DBB2092B6BD840F2333222FA03F3D80788
:10BC300065D509793846FDF781FC20B93946324887
:10BC400006F0BBFD3AE0012F01D9162F22D198F85A
:10BC5000850006F09FFD40B198F88530242B04D074
:10BC6000252B07D1322388F885303846FEF78EF829
:10BC700003461CE0162F14BF022620262B781B0734
:10BC800005D594F88630113B0F2B98BF0826304617
:10BC9000BDE8F883112F15D005D8072F14D00D2F2C
:10BCA000E3D11A4B05E0142FDFD1194B1B68002B91
:10BCB000C4D02A691448127949469847002885D08B
:10BCC0000646DBE7134BF4E7134BF2E794F88720C3
:10BCD000062A04BF01226A757BE7104B0A48984781
:10BCE000AB89DA06CAD594F886300A2BC6D10B2365
:10BCF00084F88630C2E70A4BF0E70A4BEEE70826E5
:10BD0000BCE700BF3C1200204012002005370300B2
:10BD1000501800204D37030029BD020053360300A0
:10BD200071360300A136030070B54D78A5F10E03FE
:10BD3000DBB2152B04460DD8012101FA03F640F2BF
:10BD40005122164208D14268152B92F8852027D03F
:10BD5000082B07D0002070BD02462846BDE8704081
:10BD600007F00FBC252A01D0322AF3D1204606F075
:10BD7000E9FC636893F88620262AEBD093F8D52057
:10BD800022F0010283F8D520626892F8D53023F0C2
:10BD9000080382F8D5301A212046FDF7ABF8D9E721
:10BDA0002C2AD7D1024B1B68002BD3D09847D1E760
:10BDB000581800202DE9F041A0F10E040029E4B24A
:10BDC00008BF1F21172C13460AD80126A64040F2AF
:10BDD00051273E4207D116F4600F23D1082C07D01B
:10BDE0000020BDE8F081BDE8F041002107F0C9BBAB
:10BDF000546894F88520252A08D11846FDF77AF86A
:10BE0000002384F8853084F8BE30E9E7322AE7D190
:10BE100094F88620A2F124010629F1D9322AEFD024
:10BE20002A21EAE7054A1468002CD9D00A460146BF
:10BE300018462346BDE8F041184700BF54180020BB
:10BE40002DE9F84FB54F0E46B989BC688D0556BF30
:10BE5000B4F8B4200023013204F1780A804646BFCA
:10BE6000A4F8B43084F8AF31A4F8B420504607F0F9
:10BE700038FC30B10B4604F5967221465046FEF769
:10BE800041F9BB8903F4C0632BB194F88930002BCE
:10BE900046D0032B4BD094F88920BB89012A04D1CA
:10BEA000180544BF022284F88920B8F1000F40F041
:10BEB000948059065DBFB4F8C821013292B242465F
:10BEC000A4F8C82103F00A020A2A0CD13A7D022AFA
:10BED00009D123F008033046BB81FFF73BFE08235E
:10BEE0003043C6B2BB813046FFF734FEBD6895F8DB
:10BEF0000E313043FE2BC6B23CD1DEBB95F8873005
:10BF0000063B012B36D995F81831ABB195F81931AC
:10BF1000A5F8B86085F810310122022128462EE1EB
:10BF2000012184F889102046FEF756FEB3E702236C
:10BF300084F889300121F6E795F886B0ABF1100B53
:10BF40005FFA8BFBBBF1100F40F2EC80AB6FDA07AE
:10BF500002D532460921E1E7980740F19280324646
:10BF60000C21284607F05CFB95F8C53043F001032F
:10BF700085F8C530B4F8A83194F8AC510133A4F871
:10BF8000A831002D00F0F281FCF71AFB10B100235C
:10BF9000A4F8A83194F88910012940F21C8294F881
:10BFA0008730072B40F0FA81B4F8B430022B40F20E
:10BFB0001282B4F8B6500135ADB2B4F87E302B44DD
:10BFC000A4F8A03194F8AD31002B00F008820123D1
:10BFD000B4F87E201344A4F8A431BB89BD685B0685
:10BFE0005FBFB5F8B431B5F8A6219B189BB248BF26
:10BFF0000023A5F8B43195F8183123B995F88730A6
:10C00000063B012B06D8B5F8B830B5F8A621134485
:10C01000A5F8B83095F8BE1031B1B5F8BA30B5F81A
:10C02000A6211344A5F8BA3095F9C220002AC1BF51
:10C03000B5F8C030B5F8A6011B18A5F8C03095F8C2
:10C04000A73063B9B8F1000F40F05B827B7D022B13
:10C0500040F00C8295F81031062B18BF162395F886
:10C06000A62022B92E4885F8A730FDF7A3FE284662
:10C0700007F09AFB002384F8AB31BDE8F84FFCF7DA
:10C08000A5BF590702D53246132147E71A0706D53F
:10C0900095F8083185F81031324607213EE713F054
:10C0A000300F35D095F81B31002B5BD195F81A3144
:10C0B000CBB195F88630292B05F58D7105F25E22FE
:10C0C00024D095F88530A3F1290043424341284606
:10C0D00006F0AFFAAB6F23F0200343F01003AB6719
:10C0E000002385F81A31AB6FDA063BD505F235111E
:10C0F0002846FDF76DFCB5F85230A5F81031B5F8BB
:10C100005630A5F812310022152107E70123DEE79A
:10C110005B0627D50022242100E700BF3C12002047
:10C1200040120020D7F8089099F88630182B32D0AA
:10C1300013D8112B20D0162B24D095F88530002B46
:10C1400067D195F88630103B102B6AD995F8B2303C
:10C15000002B66D001221221E0E6202BEDD13246E1
:10C1600006210BE0B86890F88630262B41D0352B9D
:10C17000E3D10022112102E032460B21484607F0AC
:10C180004FFAF7E64846FDF787FE00283FF4F2AE87
:10C1900000220421F2E799F85832012B07D13246E8
:10C1A0000521484607F03CFA89F85862E2E699F81A
:10C1B0005832022BD9B27FF4DDAE99F8C43053B1B6
:10C1C000062389F810313246484607F029FA002341
:10C1D00089F85832EAE703210622B14806F0D4FA7A
:10C1E00099F8D43013F0040F32460CBF0D21112101
:10C1F000EAE790F82431022B02D100221721BEE792
:10C2000090F82431012B98D190F82531002BF4D0EF
:10C2100093E7092B05D195F8093185F810310122F2
:10C220003BE7BBF1100F7FF6A5AEBD6895F8859092
:10C23000B9F1000F7FF49EAE95F82B313BB101228E
:10C240000E21284607F0ECF985F82B91AEE795F81A
:10C250002A3183B195F8C59019F0030B0BD1012257
:10C260000C21284649F0010907F0DAF985F8C59054
:10C2700085F82AB19AE795F81A3133B395F81B314E
:10C280001BBB95F88630292B05F58D7105F25E22D2
:10C2900019D095F88530A3F129004342434128463F
:10C2A00006F0C7F9002385F81A3101221421284627
:10C2B00007F0B6F9B5F85230A5F81031B5F8563098
:10C2C000A5F8123156E60123E9E795F82431012B50
:10C2D0003FD195F82531002B3BD195F88630A3F15D
:10C2E0002402062A35D9322B33D095F8680001286C
:10C2F00006D0022804D040F211310620FAF782FF5E
:10C3000095F86910012901D00229F4D1022895F885
:10C3100026210BD0012A14BF0022012242B90A3B78
:10C32000042B7FF627AE01221621F7E5022AF2E759
:10C33000022995F827210AD0012A14BF00220122E0
:10C34000002AECD056480021FCF7D4FD12E6022A60
:10C35000F3E7544B1B68002B3FF40CAE5048984752
:10C36000FE2801463FF406AE0122D7E5FCF722F98C
:10C3700008B1A4F8A851FCF72BF900283FF40AAE45
:10C3800094F8AF310133DBB2022B84F8AF3182BFB6
:10C390000023A4F8A83184F8AF31FBE594F8B2305B
:10C3A0001BB194F885300F2B15D1B4F8B650B4F802
:10C3B000B4305046ED1A033D07F093F968B1D4F854
:10C3C000AC30D4F8A820033B9B1A9D42A8BF1D4661
:10C3D000012D3FF7F1AD0125EFE52B46F5E7012DE6
:10C3E0007FF6F5AD94F8863013B10B2B7FF4EFADEB
:10C3F00094F88530002B7FF4EAAD94F88730002B59
:10C400007FF4E5AD02297FF4E2AD94F8AF31002B63
:10C410007FF4DDAD2069B4F82E9004F0AEFD002865
:10C420003FF4D5AD94F80E31FE2B7FF4D0ADB4F8C7
:10C43000A231012B7FF6CBADB4F8A821238C9A4210
:10C44000BFF4C5AD9B1A9BB2013DADB2B5FBF9F58A
:10C450009D4228BF1D4619FB05F3003D03F1010372
:10C4600018BF01259BB284F8AA51B1E5012B09D16F
:10C4700095F88830002B7FF4F2AD00212846FEF7B6
:10C48000ABFBF7E586B1F00639D4310739D4B206F3
:10C4900039D4B30739D140F6AF2131202EE700BFA0
:10C4A000401200206018002039B1B5F8BA10B5F874
:10C4B000BC30994201D32223D1E5002A05DDB5F82D
:10C4C000C020B5F8BC309A42F5D2B5F8B820B5F81E
:10C4D000B6309A420AD295F88920B5F8B43052B1F4
:10C4E000B5F8B6209A42C8D80823B8E595F81831AF
:10C4F000002BE0D1EFE7052BBFD93E23AFE51E238C
:10C50000ADE53D23ABE52323A9E52A23A7E500BF3D
:10C510005B4B73B50122002504461A7198609D811A
:10C520001D705D75FF2380F8AB31B0F8A231D3B137
:10C5300090F80E31FE2B16D190F818319BB190F87F
:10C540008730063B93420ED990F81931A0F8B850C5
:10C5500080F81031022107F063F884F8AA51022014
:10C56000FFF784FA03E094F80E01FE28F8D1B4F83E
:10C57000A611B4F8A821E38D013989B2B1FBF3F318
:10C580001344A4F8A831B4F8B43004F178060B448D
:10C59000A4F8B430304607F0A4F820B1D4F8A8309D
:10C5A0000B44C4F8A830B4F8A231012B9CBF01336E
:10C5B000A4F8A231002509B184F8AF5194F886306F
:10C5C00084F8AA51A3F10A02012A29D8B4F87E30CE
:10C5D000B4F85C229B1A19043BD404F25E2104F1E6
:10C5E0008D0005F018FE84F88650FF2384F8BF30D4
:10C5F000B4F8A6212146304605F053FE94F8863063
:10C600002049214A113B0F2B8CBF002301230193AA
:10C610001E4B009303C91E4BFBF7ECFE02B070BD2E
:10C62000292B16D1B4F85C22B4F87E309B1A1A0478
:10C630000FD484F88650FFF73BFA014630B984F8EE
:10C64000240102B0BDE87040FFF7FABB84F8245122
:10C65000CEE794F8853003F0FD03292BC8D1B4F858
:10C660007E30B4F85C229B1A1B04C1D4002384F8EA
:10C670008530FFF71DFA01460028B9D1E1E700BF78
:10C680003C1200204012002005B9020041BE020009
:10C69000CDB80200D0F864328269934210B50446E6
:10C6A00004D1D0F86812026A914215D02288A4F809
:10C6B0008A2140F2E242B3FBF2F3A4F88C31B4F8E1
:10C6C0006832A4F88E31B4F86A320949A4F890317E
:10C6D00004F5C07005F032FF02212046FCF7CAFEC7
:10C6E000002384F88630032384F8893010BD00BF0E
:10C6F000C528030008B5FDF777FA024B024A1A6015
:10C7000008BD00BF50180020C1B90200074B93F9C3
:10C7100000301844142804DC10F17F0F03DB40B212
:10C720007047142070476FF07E007047541200204D
:10C7300007B57F230DF107008DF8073000F0C6FD27
:10C7400003469DF9070053B1094B5B785B4240FA01
:10C7500083F0142806DC10F17F0F05DB40B203B034
:10C760005DF804FB1420FAE76FF07E00F7E700BFE6
:10C7700054120020024B00221A705A70704700BFFA
:10C7800054120020064BD3F8000138B1D3F804014D
:10C7900020B1D3F80801B0FA80F04009704700BF1B
:10C7A00000F00040034B00221A705A7010229A7059
:10C7B000704700BF5612002070B50646022014468E
:10C7C0000D4600F0A3F8064B01221A70054B033CFE
:10C7D000C3F81045C3F80865C3F8045570BD00BF21
:10C7E0005612002000F0004008B5022000F08EF83C
:10C7F000084B01221A70084B0022C3F80021C3F82D
:10C800000421C3F8082103F580334FF40002C3F874
:10C81000042508BD5612002000F000400E4A08B55D
:10C82000137883B10D4B4FF40001C3F80815FFF7DF
:10C83000A9FF68B101235370094BD3F80034DBB270
:10C84000937000231370BDE80840002000F05EB82C
:10C8500050701023F4E700BF5612002000F0014092
:10C8600000F00040094B1A7862B1094BD3F800215F
:10C8700052B1D3F8040140B1D3F80801B0FA80F006
:10C8800040097047587870470220704756120020C0
:10C8900000F0004008B5074B1A783AB1FFF772FF75
:10C8A00030B1054BD3F80004C0B208BD9878FCE75E
:10C8B0001020FAE75612002000F0004008B50A4B9D
:10C8C000D3F80025032A04BF01229A600022C3F88E
:10C8D0000025C3F8002500F065FF044B4FF400026B
:10C8E000C3F8082508BD00BF00F0004000F001407B
:10C8F000054B4FF40042C3F88020BFF34F8FBFF3C6
:10C900006F8FFFF7DBBF00BF00E100E010B504460A
:10C91000FFF7D4FF012C06D0022C0CD054B18C218F
:10C920003D20FAF76FFC0B4B0222C3F800250A4AA0
:10C93000C3F8142510BD074B0322C3F80025064A8F
:10C94000C3F8142503F580334FF40002C3F804251F
:10C95000F0E700BF00F0004059120020044B1868B7
:10C96000062818BFB0F1FF3F0CBF01200020704720
:10C97000A815002008B5FFF7F1FF38B1044B18687F
:10C98000063810F1080F94BF0020012008BD00BF39
:10C99000AC15002008B5FFF7E1FF38B1044B18686B
:10C9A000063810F1080F8CBF0020012008BD00BF21
:10C9B000AC150020064B0022C3F80021C3F80C215F
:10C9C000C3F81021C3F80421C3F80821704700BF41
:10C9D0000010004070B5144D95F8256003460846D8
:10C9E00026B940F634213E20FAF70CFC6BB9012E33
:10C9F0002C6A95F8241005D100F0C2FD2044AB69E3
:10CA0000C01A70BD06F080FFF8E7012B0AD1012E95
:10CA10002C6A95F8241002D100F0A2FDEEE706F092
:10CA20007EFFEBE70020EAE7681300200B4B93F84A
:10CA3000330088B193F832307BB1094BD3F8002230
:10CA400042F00102C3F80022D3F8500500F0F600CE
:10CA5000023818BF0120704701207047681300207A
:10CA60000010004008B5094B01281873084B06D088
:10CA7000022808D04FF474613E20FAF7C3FB03226A
:10CA8000C3F8102508BD0422FAE700BF6813002090
:10CA90000010004008B570B9104B2831D960184615
:10CAA0000F4900F03DFF0130012816D940F6BE01C4
:10CAB0003E20FAF7A7FB01280CD1084B2931D96099
:10CAC0001846074900F032FF0130012805D940F629
:10CAD000C801EDE740F6CC01EAE708BD28000020D8
